{
  "contractName": "DStorage",
  "abi": [
    {
      "inputs": [],
      "stateMutability": "nonpayable",
      "type": "constructor"
    },
    {
      "anonymous": false,
      "inputs": [
        {
          "indexed": false,
          "internalType": "address payable",
          "name": "receiver",
          "type": "address"
        },
        {
          "indexed": false,
          "internalType": "address payable",
          "name": "sender",
          "type": "address"
        }
      ],
      "name": "FileShared",
      "type": "event"
    },
    {
      "anonymous": false,
      "inputs": [
        {
          "indexed": false,
          "internalType": "uint256",
          "name": "field",
          "type": "uint256"
        },
        {
          "indexed": false,
          "internalType": "string",
          "name": "fileHash",
          "type": "string"
        },
        {
          "indexed": false,
          "internalType": "uint256",
          "name": "fileSize",
          "type": "uint256"
        },
        {
          "indexed": false,
          "internalType": "string",
          "name": "fileType",
          "type": "string"
        },
        {
          "indexed": false,
          "internalType": "string",
          "name": "fileName",
          "type": "string"
        },
        {
          "indexed": false,
          "internalType": "uint256",
          "name": "uploadTime",
          "type": "uint256"
        },
        {
          "indexed": false,
          "internalType": "address payable",
          "name": "uploader",
          "type": "address"
        }
      ],
      "name": "FileUploaded",
      "type": "event"
    },
    {
      "anonymous": false,
      "inputs": [
        {
          "indexed": false,
          "internalType": "string",
          "name": "userName",
          "type": "string"
        },
        {
          "indexed": false,
          "internalType": "address payable",
          "name": "owner",
          "type": "address"
        }
      ],
      "name": "UserAdded",
      "type": "event"
    },
    {
      "inputs": [
        {
          "internalType": "uint256",
          "name": "",
          "type": "uint256"
        }
      ],
      "name": "UserList",
      "outputs": [
        {
          "internalType": "string",
          "name": "userName",
          "type": "string"
        },
        {
          "internalType": "address payable",
          "name": "owner",
          "type": "address"
        }
      ],
      "stateMutability": "view",
      "type": "function",
      "constant": true
    },
    {
      "inputs": [],
      "name": "fileCount",
      "outputs": [
        {
          "internalType": "uint256",
          "name": "",
          "type": "uint256"
        }
      ],
      "stateMutability": "view",
      "type": "function",
      "constant": true
    },
    {
      "inputs": [
        {
          "internalType": "uint256",
          "name": "",
          "type": "uint256"
        }
      ],
      "name": "files",
      "outputs": [
        {
          "internalType": "uint256",
          "name": "field",
          "type": "uint256"
        },
        {
          "internalType": "string",
          "name": "fileHash",
          "type": "string"
        },
        {
          "internalType": "uint256",
          "name": "fileSize",
          "type": "uint256"
        },
        {
          "internalType": "string",
          "name": "fileType",
          "type": "string"
        },
        {
          "internalType": "string",
          "name": "fileName",
          "type": "string"
        },
        {
          "internalType": "uint256",
          "name": "uploadTime",
          "type": "uint256"
        },
        {
          "internalType": "address payable",
          "name": "uploader",
          "type": "address"
        }
      ],
      "stateMutability": "view",
      "type": "function",
      "constant": true
    },
    {
      "inputs": [],
      "name": "name",
      "outputs": [
        {
          "internalType": "string",
          "name": "",
          "type": "string"
        }
      ],
      "stateMutability": "view",
      "type": "function",
      "constant": true
    },
    {
      "inputs": [
        {
          "internalType": "address",
          "name": "",
          "type": "address"
        },
        {
          "internalType": "uint256",
          "name": "",
          "type": "uint256"
        }
      ],
      "name": "sharedFiles",
      "outputs": [
        {
          "internalType": "uint256",
          "name": "field",
          "type": "uint256"
        },
        {
          "internalType": "string",
          "name": "fileHash",
          "type": "string"
        },
        {
          "internalType": "uint256",
          "name": "fileSize",
          "type": "uint256"
        },
        {
          "internalType": "string",
          "name": "fileType",
          "type": "string"
        },
        {
          "internalType": "string",
          "name": "fileName",
          "type": "string"
        },
        {
          "internalType": "uint256",
          "name": "uploadTime",
          "type": "uint256"
        },
        {
          "internalType": "address payable",
          "name": "uploader",
          "type": "address"
        }
      ],
      "stateMutability": "view",
      "type": "function",
      "constant": true
    },
    {
      "inputs": [
        {
          "internalType": "address",
          "name": "",
          "type": "address"
        }
      ],
      "name": "sharedFilesCount",
      "outputs": [
        {
          "internalType": "uint256",
          "name": "",
          "type": "uint256"
        }
      ],
      "stateMutability": "view",
      "type": "function",
      "constant": true
    },
    {
      "inputs": [],
      "name": "userCount",
      "outputs": [
        {
          "internalType": "uint256",
          "name": "",
          "type": "uint256"
        }
      ],
      "stateMutability": "view",
      "type": "function",
      "constant": true
    },
    {
      "inputs": [
        {
          "internalType": "string",
          "name": "_userName",
          "type": "string"
        }
      ],
      "name": "addUser",
      "outputs": [],
      "stateMutability": "nonpayable",
      "type": "function"
    },
    {
      "inputs": [
        {
          "internalType": "address payable",
          "name": "receiver",
          "type": "address"
        },
        {
          "internalType": "uint256",
          "name": "i",
          "type": "uint256"
        }
      ],
      "name": "getSharedFile",
      "outputs": [
        {
          "internalType": "string",
          "name": "_fileName",
          "type": "string"
        },
        {
          "internalType": "string",
          "name": "_fileHash",
          "type": "string"
        },
        {
          "internalType": "uint256",
          "name": "_fileSize",
          "type": "uint256"
        },
        {
          "internalType": "string",
          "name": "_fileType",
          "type": "string"
        },
        {
          "internalType": "uint256",
          "name": "_fileUploadTime",
          "type": "uint256"
        },
        {
          "internalType": "address",
          "name": "_fileUploaderName",
          "type": "address"
        }
      ],
      "stateMutability": "view",
      "type": "function",
      "constant": true
    },
    {
      "inputs": [
        {
          "internalType": "address payable",
          "name": "receiver",
          "type": "address"
        },
        {
          "internalType": "string",
          "name": "_fileHash",
          "type": "string"
        },
        {
          "internalType": "uint256",
          "name": "_fileSize",
          "type": "uint256"
        },
        {
          "internalType": "string",
          "name": "_fileType",
          "type": "string"
        },
        {
          "internalType": "string",
          "name": "_fileName",
          "type": "string"
        }
      ],
      "name": "shareFile",
      "outputs": [],
      "stateMutability": "nonpayable",
      "type": "function"
    },
    {
      "inputs": [
        {
          "internalType": "string",
          "name": "_fileHash",
          "type": "string"
        },
        {
          "internalType": "uint256",
          "name": "_fileSize",
          "type": "uint256"
        },
        {
          "internalType": "string",
          "name": "_fileType",
          "type": "string"
        },
        {
          "internalType": "string",
          "name": "_fileName",
          "type": "string"
        }
      ],
      "name": "uploadFile",
      "outputs": [],
      "stateMutability": "nonpayable",
      "type": "function"
    }
  ],
  "bytecode": "0x60806040526040518060400160405280600881526020017f4453746f72616765000000000000000000000000000000000000000000000000815250600090805190602001906200005192919062000070565b50600060015560006005553480156200006957600080fd5b5062000184565b8280546200007e906200014f565b90600052602060002090601f016020900481019282620000a25760008555620000ee565b82601f10620000bd57805160ff1916838001178555620000ee565b82800160010185558215620000ee579182015b82811115620000ed578251825591602001919060010190620000d0565b5b509050620000fd919062000101565b5090565b5b808211156200011c57600081600090555060010162000102565b5090565b7f4e487b7100000000000000000000000000000000000000000000000000000000600052602260045260246000fd5b600060028204905060018216806200016857607f821691505b6020821081036200017e576200017d62000120565b5b50919050565b611a6580620001946000396000f3fe608060405234801561001057600080fd5b50600436106100a95760003560e01c80634395351911610071578063439535191461013e5780634b72569a1461015c578063560414321461018c578063a9bb6972146101c2578063babe1655146101f7578063f4c714b414610228576100a9565b806306fdde03146100ae57806307973ccf146100cc57806318b8275a146100ea57806320f21708146101065780633b372e7f14610122575b600080fd5b6100b661025e565b6040516100c391906112cd565b60405180910390f35b6100d46102ec565b6040516100e19190611308565b60405180910390f35b61010460048036038101906100ff919061146c565b6102f2565b005b610120600480360381019061011b91906114e1565b610434565b005b61013c600480360381019061013791906115fa565b610626565b005b610146610863565b6040516101539190611308565b60405180910390f35b61017660048036038101906101719190611707565b610869565b6040516101839190611308565b60405180910390f35b6101a660048036038101906101a19190611734565b610881565b6040516101b99796959493929190611783565b60405180910390f35b6101dc60048036038101906101d79190611807565b610a98565b6040516101ee96959493929190611856565b60405180910390f35b610211600480360381019061020c91906118cc565b610ecb565b60405161021f9291906118f9565b60405180910390f35b610242600480360381019061023d91906118cc565b610f97565b6040516102559796959493929190611783565b60405180910390f35b6000805461026b90611958565b80601f016020809104026020016040519081016040528092919081815260200182805461029790611958565b80156102e45780601f106102b9576101008083540402835291602001916102e4565b820191906000526020600020905b8154815290600101906020018083116102c757829003601f168201915b505050505081565b60015481565b600073ffffffffffffffffffffffffffffffffffffffff163373ffffffffffffffffffffffffffffffffffffffff160361032b57600080fd5b600081511161033957600080fd5b6001600081548092919061034c906119b8565b919050555060405180604001604052808281526020013373ffffffffffffffffffffffffffffffffffffffff1681525060026000600154815260200190815260200160002060008201518160000190805190602001906103ad929190611191565b5060208201518160010160006101000a81548173ffffffffffffffffffffffffffffffffffffffff021916908373ffffffffffffffffffffffffffffffffffffffff1602179055509050507fa9f30653d8449c84b5b92a43e719ff26da48571661b3093c672cec7f62df636181336040516104299291906118f9565b60405180910390a150565b600084511161044257600080fd5b600082511161045057600080fd5b600081511161045e57600080fd5b600073ffffffffffffffffffffffffffffffffffffffff163373ffffffffffffffffffffffffffffffffffffffff160361049757600080fd5b600083116104a457600080fd5b600560008154809291906104b7906119b8565b91905055506040518060e0016040528060055481526020018581526020018481526020018381526020018281526020014281526020013373ffffffffffffffffffffffffffffffffffffffff16815250600660006005548152602001908152602001600020600082015181600001556020820151816001019080519060200190610542929190611191565b50604082015181600201556060820151816003019080519060200190610569929190611191565b506080820151816004019080519060200190610586929190611191565b5060a0820151816005015560c08201518160060160006101000a81548173ffffffffffffffffffffffffffffffffffffffff021916908373ffffffffffffffffffffffffffffffffffffffff1602179055509050507f8afab45e252455189e0428faed31ed4afc4c187924fd4f30fcf4fef26b5435366005548585858542336040516106189796959493929190611783565b60405180910390a150505050565b600084511161063457600080fd5b600082511161064257600080fd5b600081511161065057600080fd5b600073ffffffffffffffffffffffffffffffffffffffff163373ffffffffffffffffffffffffffffffffffffffff160361068957600080fd5b6000831161069657600080fd5b600460008673ffffffffffffffffffffffffffffffffffffffff1673ffffffffffffffffffffffffffffffffffffffff16815260200190815260200160002060008154809291906106e6906119b8565b9190505550600360008673ffffffffffffffffffffffffffffffffffffffff1673ffffffffffffffffffffffffffffffffffffffff1681526020019081526020016000206040518060e0016040528060055481526020018681526020018581526020018481526020018381526020014281526020013373ffffffffffffffffffffffffffffffffffffffff1681525090806001815401808255809150506001900390600052602060002090600702016000909190919091506000820151816000015560208201518160010190805190602001906107c4929190611191565b506040820151816002015560608201518160030190805190602001906107eb929190611191565b506080820151816004019080519060200190610808929190611191565b5060a0820151816005015560c08201518160060160006101000a81548173ffffffffffffffffffffffffffffffffffffffff021916908373ffffffffffffffffffffffffffffffffffffffff16021790555050505050505050565b60055481565b60046020528060005260406000206000915090505481565b6003602052816000526040600020818154811061089d57600080fd5b9060005260206000209060070201600091509150508060000154908060010180546108c790611958565b80601f01602080910402602001604051908101604052809291908181526020018280546108f390611958565b80156109405780601f1061091557610100808354040283529160200191610940565b820191906000526020600020905b81548152906001019060200180831161092357829003601f168201915b50505050509080600201549080600301805461095b90611958565b80601f016020809104026020016040519081016040528092919081815260200182805461098790611958565b80156109d45780601f106109a9576101008083540402835291602001916109d4565b820191906000526020600020905b8154815290600101906020018083116109b757829003601f168201915b5050505050908060040180546109e990611958565b80601f0160208091040260200160405190810160405280929190818152602001828054610a1590611958565b8015610a625780601f10610a3757610100808354040283529160200191610a62565b820191906000526020600020905b815481529060010190602001808311610a4557829003601f168201915b5050505050908060050154908060060160009054906101000a900473ffffffffffffffffffffffffffffffffffffffff16905087565b60608060006060600080600360008973ffffffffffffffffffffffffffffffffffffffff1673ffffffffffffffffffffffffffffffffffffffff1681526020019081526020016000208781548110610af357610af2611a00565b5b9060005260206000209060070201600401600360008a73ffffffffffffffffffffffffffffffffffffffff1673ffffffffffffffffffffffffffffffffffffffff1681526020019081526020016000208881548110610b5557610b54611a00565b5b9060005260206000209060070201600101600360008b73ffffffffffffffffffffffffffffffffffffffff1673ffffffffffffffffffffffffffffffffffffffff1681526020019081526020016000208981548110610bb757610bb6611a00565b5b906000526020600020906007020160020154600360008c73ffffffffffffffffffffffffffffffffffffffff1673ffffffffffffffffffffffffffffffffffffffff1681526020019081526020016000208a81548110610c1a57610c19611a00565b5b9060005260206000209060070201600301600360008d73ffffffffffffffffffffffffffffffffffffffff1673ffffffffffffffffffffffffffffffffffffffff1681526020019081526020016000208b81548110610c7c57610c7b611a00565b5b906000526020600020906007020160050154600360008e73ffffffffffffffffffffffffffffffffffffffff1673ffffffffffffffffffffffffffffffffffffffff1681526020019081526020016000208c81548110610cdf57610cde611a00565b5b906000526020600020906007020160060160009054906101000a900473ffffffffffffffffffffffffffffffffffffffff16858054610d1d90611958565b80601f0160208091040260200160405190810160405280929190818152602001828054610d4990611958565b8015610d965780601f10610d6b57610100808354040283529160200191610d96565b820191906000526020600020905b815481529060010190602001808311610d7957829003601f168201915b50505050509550848054610da990611958565b80601f0160208091040260200160405190810160405280929190818152602001828054610dd590611958565b8015610e225780601f10610df757610100808354040283529160200191610e22565b820191906000526020600020905b815481529060010190602001808311610e0557829003601f168201915b50505050509450828054610e3590611958565b80601f0160208091040260200160405190810160405280929190818152602001828054610e6190611958565b8015610eae5780601f10610e8357610100808354040283529160200191610eae565b820191906000526020600020905b815481529060010190602001808311610e9157829003601f168201915b505050505092509550955095509550955095509295509295509295565b6002602052806000526040600020600091509050806000018054610eee90611958565b80601f0160208091040260200160405190810160405280929190818152602001828054610f1a90611958565b8015610f675780601f10610f3c57610100808354040283529160200191610f67565b820191906000526020600020905b815481529060010190602001808311610f4a57829003601f168201915b5050505050908060010160009054906101000a900473ffffffffffffffffffffffffffffffffffffffff16905082565b6006602052806000526040600020600091509050806000015490806001018054610fc090611958565b80601f0160208091040260200160405190810160405280929190818152602001828054610fec90611958565b80156110395780601f1061100e57610100808354040283529160200191611039565b820191906000526020600020905b81548152906001019060200180831161101c57829003601f168201915b50505050509080600201549080600301805461105490611958565b80601f016020809104026020016040519081016040528092919081815260200182805461108090611958565b80156110cd5780601f106110a2576101008083540402835291602001916110cd565b820191906000526020600020905b8154815290600101906020018083116110b057829003601f168201915b5050505050908060040180546110e290611958565b80601f016020809104026020016040519081016040528092919081815260200182805461110e90611958565b801561115b5780601f106111305761010080835404028352916020019161115b565b820191906000526020600020905b81548152906001019060200180831161113e57829003601f168201915b5050505050908060050154908060060160009054906101000a900473ffffffffffffffffffffffffffffffffffffffff16905087565b82805461119d90611958565b90600052602060002090601f0160209004810192826111bf5760008555611206565b82601f106111d857805160ff1916838001178555611206565b82800160010185558215611206579182015b828111156112055782518255916020019190600101906111ea565b5b5090506112139190611217565b5090565b5b80821115611230576000816000905550600101611218565b5090565b600081519050919050565b600082825260208201905092915050565b60005b8381101561126e578082015181840152602081019050611253565b8381111561127d576000848401525b50505050565b6000601f19601f8301169050919050565b600061129f82611234565b6112a9818561123f565b93506112b9818560208601611250565b6112c281611283565b840191505092915050565b600060208201905081810360008301526112e78184611294565b905092915050565b6000819050919050565b611302816112ef565b82525050565b600060208201905061131d60008301846112f9565b92915050565b6000604051905090565b600080fd5b600080fd5b600080fd5b600080fd5b7f4e487b7100000000000000000000000000000000000000000000000000000000600052604160045260246000fd5b61137982611283565b810181811067ffffffffffffffff8211171561139857611397611341565b5b80604052505050565b60006113ab611323565b90506113b78282611370565b919050565b600067ffffffffffffffff8211156113d7576113d6611341565b5b6113e082611283565b9050602081019050919050565b82818337600083830152505050565b600061140f61140a846113bc565b6113a1565b90508281526020810184848401111561142b5761142a61133c565b5b6114368482856113ed565b509392505050565b600082601f83011261145357611452611337565b5b81356114638482602086016113fc565b91505092915050565b6000602082840312156114825761148161132d565b5b600082013567ffffffffffffffff8111156114a05761149f611332565b5b6114ac8482850161143e565b91505092915050565b6114be816112ef565b81146114c957600080fd5b50565b6000813590506114db816114b5565b92915050565b600080600080608085870312156114fb576114fa61132d565b5b600085013567ffffffffffffffff81111561151957611518611332565b5b6115258782880161143e565b9450506020611536878288016114cc565b935050604085013567ffffffffffffffff81111561155757611556611332565b5b6115638782880161143e565b925050606085013567ffffffffffffffff81111561158457611583611332565b5b6115908782880161143e565b91505092959194509250565b600073ffffffffffffffffffffffffffffffffffffffff82169050919050565b60006115c78261159c565b9050919050565b6115d7816115bc565b81146115e257600080fd5b50565b6000813590506115f4816115ce565b92915050565b600080600080600060a086880312156116165761161561132d565b5b6000611624888289016115e5565b955050602086013567ffffffffffffffff81111561164557611644611332565b5b6116518882890161143e565b9450506040611662888289016114cc565b935050606086013567ffffffffffffffff81111561168357611682611332565b5b61168f8882890161143e565b925050608086013567ffffffffffffffff8111156116b0576116af611332565b5b6116bc8882890161143e565b9150509295509295909350565b60006116d48261159c565b9050919050565b6116e4816116c9565b81146116ef57600080fd5b50565b600081359050611701816116db565b92915050565b60006020828403121561171d5761171c61132d565b5b600061172b848285016116f2565b91505092915050565b6000806040838503121561174b5761174a61132d565b5b6000611759858286016116f2565b925050602061176a858286016114cc565b9150509250929050565b61177d816115bc565b82525050565b600060e082019050611798600083018a6112f9565b81810360208301526117aa8189611294565b90506117b960408301886112f9565b81810360608301526117cb8187611294565b905081810360808301526117df8186611294565b90506117ee60a08301856112f9565b6117fb60c0830184611774565b98975050505050505050565b6000806040838503121561181e5761181d61132d565b5b600061182c858286016115e5565b925050602061183d858286016114cc565b9150509250929050565b611850816116c9565b82525050565b600060c08201905081810360008301526118708189611294565b905081810360208301526118848188611294565b905061189360408301876112f9565b81810360608301526118a58186611294565b90506118b460808301856112f9565b6118c160a0830184611847565b979650505050505050565b6000602082840312156118e2576118e161132d565b5b60006118f0848285016114cc565b91505092915050565b600060408201905081810360008301526119138185611294565b90506119226020830184611774565b9392505050565b7f4e487b7100000000000000000000000000000000000000000000000000000000600052602260045260246000fd5b6000600282049050600182168061197057607f821691505b60208210810361198357611982611929565b5b50919050565b7f4e487b7100000000000000000000000000000000000000000000000000000000600052601160045260246000fd5b60006119c3826112ef565b91507fffffffffffffffffffffffffffffffffffffffffffffffffffffffffffffffff82036119f5576119f4611989565b5b600182019050919050565b7f4e487b7100000000000000000000000000000000000000000000000000000000600052603260045260246000fdfea2646970667358221220d50240ae8a31a28607cba0f29780f999105da6dcae771bfa274348497a7f479664736f6c634300080e0033",
  "immutableReferences": {},
  "source": "// SPDX-License-Identifier: GPL-3.0\r\npragma solidity ^0.8.4;\r\n\r\ncontract DStorage {\r\n  string public name = \"DStorage\";// Name\r\n  uint public userCount=0;  //UserCount\r\n  mapping(uint =>User) public UserList; // mapping of users\r\n  mapping(address =>File[]) public sharedFiles;  // mapping of shared files\r\n  mapping(address=>uint) public sharedFilesCount;\r\n  uint public fileCount=0;  // Number of files\r\n  mapping(uint=>File) public files;// Mapping fileId=>Struct \r\n\r\n // Struct Files\r\n struct File{\r\n     uint field;\r\n     string fileHash;\r\n     uint fileSize;\r\n     string fileType;\r\n     string fileName;\r\n     uint uploadTime;\r\n     address payable uploader; \r\n   }\r\n  // Struct\r\n  struct User{\r\n    string userName;\r\n    address payable owner;\r\n  }\r\n\r\n  // Event\r\n  event FileUploaded(\r\n     uint field,\r\n     string fileHash,\r\n     uint fileSize,\r\n     string fileType,\r\n     string fileName,\r\n     uint uploadTime,\r\n     address payable uploader \r\n  );\r\n\r\n  event UserAdded(\r\n     string userName,\r\n     address payable owner\r\n  );\r\n\r\n  event FileShared(\r\n    address payable receiver,\r\n    address payable sender\r\n  );\r\n\r\n   // Add a User\r\n    function addUser(string memory _userName) public {\r\n  \r\n    require(msg.sender!=address(0));  //check if the address is valid\r\n  \r\n    require(bytes(_userName).length>0);   // Check if the username is valid\r\n    userCount++;\r\n    UserList[userCount] =  User(_userName,payable(msg.sender)); //adding user to mapping \r\n    emit UserAdded(_userName,payable(msg.sender));\r\n  }\r\n\r\n  function getSharedFile(address payable receiver,uint i) public view returns(string memory _fileName,string memory _fileHash,uint _fileSize,string memory _fileType,uint _fileUploadTime,address _fileUploaderName) {\r\n    return(sharedFiles[receiver][i].fileName,sharedFiles[receiver][i].fileHash,sharedFiles[receiver][i].fileSize,sharedFiles[receiver][i].fileType,sharedFiles[receiver][i].uploadTime,sharedFiles[receiver][i].uploader);\r\n  }\r\n  //Get Shared Files\r\n  \r\n //Share a file \r\n  function shareFile(address payable receiver ,string memory _fileHash, uint _fileSize, string memory _fileType, string memory _fileName\r\n  ) public {\r\n    require((bytes(_fileHash).length>0)); // Make sure the file hash exists\r\n\r\n    require((bytes(_fileType).length>0)); // Make sure file type exists\r\n   \r\n    require((bytes(_fileName).length>0));  // Make sure file fileName exists\r\n    \r\n    require(msg.sender!=address(0)); // Make sure uploader address exists\r\n    \r\n    require(_fileSize>0); // Make sure file size is more than 0\r\n\r\n     //Increasing shared files count\r\n     sharedFilesCount[receiver]++;\r\n\r\n     sharedFiles[receiver].push(File(fileCount,_fileHash,_fileSize,_fileType,_fileName, block.timestamp ,payable(msg.sender)));\r\n  }\r\n\r\n// Upload File function\r\n  function uploadFile(string memory _fileHash, uint _fileSize, string memory _fileType, string memory _fileName) public {\r\n\r\n\r\n    require((bytes(_fileHash).length>0)); // Make sure the file hash exists\r\n\r\n    require((bytes(_fileType).length>0)); // Make sure file type exists\r\n   \r\n    require((bytes(_fileName).length>0));  // Make sure file fileName exists\r\n    \r\n    require(msg.sender!=address(0)); // Make sure uploader address exists\r\n    \r\n    require(_fileSize>0); // Make sure file size is more than 0\r\n\r\n    fileCount++; // Increment file id\r\n\r\n    files[fileCount]=File(fileCount,_fileHash,_fileSize,_fileType,_fileName, block.timestamp ,payable(msg.sender));  // Add File to the contract\r\n\r\n    emit FileUploaded(fileCount,_fileHash,_fileSize,_fileType,_fileName, block.timestamp ,payable(msg.sender)); // Trigger an event\r\n  }\r\n  constructor()  {\r\n  }\r\n\r\n}",
  "sourcePath": "D:\\My life\\Web dev\\collaboration\\SafeNSecure-v2.0-\\contracts\\DStorage.sol",
  "compiler": {
    "name": "solc",
    "version": "0.8.14+commit.80d49f37.Emscripten.clang"
  },
  "schemaVersion": "3.4.7",
  "updatedAt": "2022-05-20T04:27:42.483Z",
  "networkType": "ethereum",
  "devdoc": {
    "kind": "dev",
    "methods": {},
    "version": 1
  },
  "userdoc": {
    "kind": "user",
    "methods": {},
    "version": 1
  }
}